{
  "_format": "hh-sol-artifact-1",
  "contractName": "NFT",
  "sourceName": "contracts/NFT.sol",
  "abi": [
    {
      "inputs": [],
      "stateMutability": "nonpayable",
      "type": "constructor"
    },
    {
      "anonymous": false,
      "inputs": [
        {
          "indexed": true,
          "internalType": "address",
          "name": "owner",
          "type": "address"
        },
        {
          "indexed": true,
          "internalType": "address",
          "name": "approved",
          "type": "address"
        },
        {
          "indexed": true,
          "internalType": "uint256",
          "name": "tokenId",
          "type": "uint256"
        }
      ],
      "name": "Approval",
      "type": "event"
    },
    {
      "anonymous": false,
      "inputs": [
        {
          "indexed": true,
          "internalType": "address",
          "name": "owner",
          "type": "address"
        },
        {
          "indexed": true,
          "internalType": "address",
          "name": "operator",
          "type": "address"
        },
        {
          "indexed": false,
          "internalType": "bool",
          "name": "approved",
          "type": "bool"
        }
      ],
      "name": "ApprovalForAll",
      "type": "event"
    },
    {
      "anonymous": false,
      "inputs": [
        {
          "indexed": true,
          "internalType": "uint256",
          "name": "tokenId",
          "type": "uint256"
        },
        {
          "indexed": false,
          "internalType": "string",
          "name": "tokenURI",
          "type": "string"
        }
      ],
      "name": "NFTMinted",
      "type": "event"
    },
    {
      "anonymous": false,
      "inputs": [
        {
          "indexed": true,
          "internalType": "address",
          "name": "from",
          "type": "address"
        },
        {
          "indexed": true,
          "internalType": "address",
          "name": "to",
          "type": "address"
        },
        {
          "indexed": true,
          "internalType": "uint256",
          "name": "tokenId",
          "type": "uint256"
        }
      ],
      "name": "Transfer",
      "type": "event"
    },
    {
      "inputs": [
        {
          "internalType": "address",
          "name": "to",
          "type": "address"
        },
        {
          "internalType": "uint256",
          "name": "tokenId",
          "type": "uint256"
        }
      ],
      "name": "approve",
      "outputs": [],
      "stateMutability": "nonpayable",
      "type": "function"
    },
    {
      "inputs": [
        {
          "internalType": "address",
          "name": "owner",
          "type": "address"
        }
      ],
      "name": "balanceOf",
      "outputs": [
        {
          "internalType": "uint256",
          "name": "",
          "type": "uint256"
        }
      ],
      "stateMutability": "view",
      "type": "function"
    },
    {
      "inputs": [
        {
          "internalType": "string",
          "name": "tokenURI",
          "type": "string"
        }
      ],
      "name": "createToken",
      "outputs": [
        {
          "internalType": "uint256",
          "name": "",
          "type": "uint256"
        }
      ],
      "stateMutability": "nonpayable",
      "type": "function"
    },
    {
      "inputs": [
        {
          "internalType": "string",
          "name": "tokenURI",
          "type": "string"
        },
        {
          "internalType": "address",
          "name": "destinationAddress",
          "type": "address"
        }
      ],
      "name": "createTokenOnBehalfOf",
      "outputs": [
        {
          "internalType": "uint256",
          "name": "",
          "type": "uint256"
        }
      ],
      "stateMutability": "nonpayable",
      "type": "function"
    },
    {
      "inputs": [
        {
          "internalType": "uint256",
          "name": "tokenId",
          "type": "uint256"
        }
      ],
      "name": "getApproved",
      "outputs": [
        {
          "internalType": "address",
          "name": "",
          "type": "address"
        }
      ],
      "stateMutability": "view",
      "type": "function"
    },
    {
      "inputs": [
        {
          "internalType": "address",
          "name": "owner",
          "type": "address"
        },
        {
          "internalType": "address",
          "name": "operator",
          "type": "address"
        }
      ],
      "name": "isApprovedForAll",
      "outputs": [
        {
          "internalType": "bool",
          "name": "",
          "type": "bool"
        }
      ],
      "stateMutability": "view",
      "type": "function"
    },
    {
      "inputs": [],
      "name": "name",
      "outputs": [
        {
          "internalType": "string",
          "name": "",
          "type": "string"
        }
      ],
      "stateMutability": "view",
      "type": "function"
    },
    {
      "inputs": [
        {
          "internalType": "uint256",
          "name": "tokenId",
          "type": "uint256"
        }
      ],
      "name": "ownerOf",
      "outputs": [
        {
          "internalType": "address",
          "name": "",
          "type": "address"
        }
      ],
      "stateMutability": "view",
      "type": "function"
    },
    {
      "inputs": [
        {
          "internalType": "address",
          "name": "from",
          "type": "address"
        },
        {
          "internalType": "address",
          "name": "to",
          "type": "address"
        },
        {
          "internalType": "uint256",
          "name": "tokenId",
          "type": "uint256"
        }
      ],
      "name": "safeTransferFrom",
      "outputs": [],
      "stateMutability": "nonpayable",
      "type": "function"
    },
    {
      "inputs": [
        {
          "internalType": "address",
          "name": "from",
          "type": "address"
        },
        {
          "internalType": "address",
          "name": "to",
          "type": "address"
        },
        {
          "internalType": "uint256",
          "name": "tokenId",
          "type": "uint256"
        },
        {
          "internalType": "bytes",
          "name": "data",
          "type": "bytes"
        }
      ],
      "name": "safeTransferFrom",
      "outputs": [],
      "stateMutability": "nonpayable",
      "type": "function"
    },
    {
      "inputs": [
        {
          "internalType": "address",
          "name": "operator",
          "type": "address"
        },
        {
          "internalType": "bool",
          "name": "approved",
          "type": "bool"
        }
      ],
      "name": "setApprovalForAll",
      "outputs": [],
      "stateMutability": "nonpayable",
      "type": "function"
    },
    {
      "inputs": [
        {
          "internalType": "bytes4",
          "name": "interfaceId",
          "type": "bytes4"
        }
      ],
      "name": "supportsInterface",
      "outputs": [
        {
          "internalType": "bool",
          "name": "",
          "type": "bool"
        }
      ],
      "stateMutability": "view",
      "type": "function"
    },
    {
      "inputs": [],
      "name": "symbol",
      "outputs": [
        {
          "internalType": "string",
          "name": "",
          "type": "string"
        }
      ],
      "stateMutability": "view",
      "type": "function"
    },
    {
      "inputs": [
        {
          "internalType": "uint256",
          "name": "tokenId",
          "type": "uint256"
        }
      ],
      "name": "tokenURI",
      "outputs": [
        {
          "internalType": "string",
          "name": "",
          "type": "string"
        }
      ],
      "stateMutability": "view",
      "type": "function"
    },
    {
      "inputs": [
        {
          "internalType": "address",
          "name": "from",
          "type": "address"
        },
        {
          "internalType": "address",
          "name": "to",
          "type": "address"
        },
        {
          "internalType": "uint256",
          "name": "tokenId",
          "type": "uint256"
        }
      ],
      "name": "transferFrom",
      "outputs": [],
      "stateMutability": "nonpayable",
      "type": "function"
    }
  ],
  "bytecode": "0x60806040523480156200001157600080fd5b506040805180820182526009815268105d1a5b184813919560ba1b602080830191825283518085019094526008845267105512531053919560c21b908401528151919291620000639160009162000082565b5080516200007990600190602084019062000082565b50505062000165565b828054620000909062000128565b90600052602060002090601f016020900481019282620000b45760008555620000ff565b82601f10620000cf57805160ff1916838001178555620000ff565b82800160010185558215620000ff579182015b82811115620000ff578251825591602001919060010190620000e2565b506200010d92915062000111565b5090565b5b808211156200010d576000815560010162000112565b600181811c908216806200013d57607f821691505b602082108114156200015f57634e487b7160e01b600052602260045260246000fd5b50919050565b61164980620001756000396000f3fe608060405234801561001057600080fd5b50600436106100f55760003560e01c80636352211e11610097578063a22cb46511610066578063a22cb465146101ff578063b88d4fde14610212578063c87b56dd14610225578063e985e9c51461023857600080fd5b80636352211e146101be57806370a08231146101d157806395d89b41146101e457806399531316146101ec57600080fd5b8063095ea7b3116100d3578063095ea7b31461016257806323b872dd1461017757806342842e0e1461018a57806345576f941461019d57600080fd5b806301ffc9a7146100fa57806306fdde0314610122578063081812fc14610137575b600080fd5b61010d6101083660046112d1565b610274565b60405190151581526020015b60405180910390f35b61012a6102c6565b604051610119919061142f565b61014a61014536600461137f565b610358565b6040516001600160a01b039091168152602001610119565b6101756101703660046112a8565b61037f565b005b6101756101853660046111ba565b61049a565b6101756101983660046111ba565b6104cb565b6101b06101ab366004611309565b6104e6565b604051908152602001610119565b61014a6101cc36600461137f565b6104f2565b6101b06101df36600461116e565b610552565b61012a6105d8565b6101b06101fa36600461133c565b6105e7565b61017561020d36600461126e565b6105fa565b6101756102203660046111f5565b610609565b61012a61023336600461137f565b610641565b61010d610246366004611188565b6001600160a01b03918216600090815260056020908152604080832093909416825291909152205460ff1690565b60006001600160e01b031982166380ac58cd60e01b14806102a557506001600160e01b03198216635b5e139f60e01b145b806102c057506301ffc9a760e01b6001600160e01b03198316145b92915050565b6060600080546102d590611551565b80601f016020809104026020016040519081016040528092919081815260200182805461030190611551565b801561034e5780601f106103235761010080835404028352916020019161034e565b820191906000526020600020905b81548152906001019060200180831161033157829003601f168201915b5050505050905090565b600061036382610752565b506000908152600460205260409020546001600160a01b031690565b600061038a826104f2565b9050806001600160a01b0316836001600160a01b031614156103fd5760405162461bcd60e51b815260206004820152602160248201527f4552433732313a20617070726f76616c20746f2063757272656e74206f776e656044820152603960f91b60648201526084015b60405180910390fd5b336001600160a01b038216148061041957506104198133610246565b61048b5760405162461bcd60e51b815260206004820152603e60248201527f4552433732313a20617070726f76652063616c6c6572206973206e6f7420746f60448201527f6b656e206f776e6572206e6f7220617070726f76656420666f7220616c6c000060648201526084016103f4565b61049583836107b4565b505050565b6104a43382610822565b6104c05760405162461bcd60e51b81526004016103f490611494565b6104958383836108a0565b61049583838360405180602001604052806000815250610609565b60006102c08233610a3c565b6000818152600260205260408120546001600160a01b0316806102c05760405162461bcd60e51b8152602060048201526018602482015277115490cdcc8c4e881a5b9d985b1a59081d1bdad95b88125160421b60448201526064016103f4565b60006001600160a01b0382166105bc5760405162461bcd60e51b815260206004820152602960248201527f4552433732313a2061646472657373207a65726f206973206e6f7420612076616044820152683634b21037bbb732b960b91b60648201526084016103f4565b506001600160a01b031660009081526003602052604090205490565b6060600180546102d590611551565b60006105f38383610a3c565b9392505050565b610605338383610aac565b5050565b6106133383610822565b61062f5760405162461bcd60e51b81526004016103f490611494565b61063b84848484610b7b565b50505050565b606061064c82610752565b6000828152600660205260408120805461066590611551565b80601f016020809104026020016040519081016040528092919081815260200182805461069190611551565b80156106de5780601f106106b3576101008083540402835291602001916106de565b820191906000526020600020905b8154815290600101906020018083116106c157829003601f168201915b5050505050905060006106fc60408051602081019091526000815290565b905080516000141561070f575092915050565b8151156107415780826040516020016107299291906113c3565b60405160208183030381529060405292505050919050565b61074a84610bae565b949350505050565b6000818152600260205260409020546001600160a01b03166107b15760405162461bcd60e51b8152602060048201526018602482015277115490cdcc8c4e881a5b9d985b1a59081d1bdad95b88125160421b60448201526064016103f4565b50565b600081815260046020526040902080546001600160a01b0319166001600160a01b03841690811790915581906107e9826104f2565b6001600160a01b03167f8c5be1e5ebec7d5bd14f71427d1e84f3dd0314c0f7b2291e5b200ac8c7c3b92560405160405180910390a45050565b60008061082e836104f2565b9050806001600160a01b0316846001600160a01b0316148061087557506001600160a01b0380821660009081526005602090815260408083209388168352929052205460ff165b8061074a5750836001600160a01b031661088e84610358565b6001600160a01b031614949350505050565b826001600160a01b03166108b3826104f2565b6001600160a01b0316146109175760405162461bcd60e51b815260206004820152602560248201527f4552433732313a207472616e736665722066726f6d20696e636f72726563742060448201526437bbb732b960d91b60648201526084016103f4565b6001600160a01b0382166109795760405162461bcd60e51b8152602060048201526024808201527f4552433732313a207472616e7366657220746f20746865207a65726f206164646044820152637265737360e01b60648201526084016103f4565b6109846000826107b4565b6001600160a01b03831660009081526003602052604081208054600192906109ad90849061150e565b90915550506001600160a01b03821660009081526003602052604081208054600192906109db9084906114e2565b909155505060008181526002602052604080822080546001600160a01b0319166001600160a01b0386811691821790925591518493918716917fddf252ad1be2c89b69c2b068fc378daa952ba7f163c4a11628f55a4df523b3ef91a4505050565b6000610a4c600780546001019055565b6000610a5760075490565b9050610a638382610c21565b610a6d8185610d63565b807f9e0bfaf38878aad3ebd19b8c8065288eb130f0499a7378363d4652515588ac9685604051610a9d919061142f565b60405180910390a29392505050565b816001600160a01b0316836001600160a01b03161415610b0e5760405162461bcd60e51b815260206004820152601960248201527f4552433732313a20617070726f766520746f2063616c6c65720000000000000060448201526064016103f4565b6001600160a01b03838116600081815260056020908152604080832094871680845294825291829020805460ff191686151590811790915591519182527f17307eab39ab6107e8899845ad3d59bd9653f200f220920489ca2b5937696c31910160405180910390a3505050565b610b868484846108a0565b610b9284848484610dfd565b61063b5760405162461bcd60e51b81526004016103f490611442565b6060610bb982610752565b6000610bd060408051602081019091526000815290565b90506000815111610bf057604051806020016040528060008152506105f3565b80610bfa84610f0a565b604051602001610c0b9291906113c3565b6040516020818303038152906040529392505050565b6001600160a01b038216610c775760405162461bcd60e51b815260206004820181905260248201527f4552433732313a206d696e7420746f20746865207a65726f206164647265737360448201526064016103f4565b6000818152600260205260409020546001600160a01b031615610cdc5760405162461bcd60e51b815260206004820152601c60248201527f4552433732313a20746f6b656e20616c7265616479206d696e7465640000000060448201526064016103f4565b6001600160a01b0382166000908152600360205260408120805460019290610d059084906114e2565b909155505060008181526002602052604080822080546001600160a01b0319166001600160a01b03861690811790915590518392907fddf252ad1be2c89b69c2b068fc378daa952ba7f163c4a11628f55a4df523b3ef908290a45050565b6000828152600260205260409020546001600160a01b0316610dde5760405162461bcd60e51b815260206004820152602e60248201527f45524337323155524953746f726167653a2055524920736574206f66206e6f6e60448201526d32bc34b9ba32b73a103a37b5b2b760911b60648201526084016103f4565b6000828152600660209081526040909120825161049592840190611024565b60006001600160a01b0384163b15610eff57604051630a85bd0160e11b81526001600160a01b0385169063150b7a0290610e419033908990889088906004016113f2565b602060405180830381600087803b158015610e5b57600080fd5b505af1925050508015610e8b575060408051601f3d908101601f19168201909252610e88918101906112ed565b60015b610ee5573d808015610eb9576040519150601f19603f3d011682016040523d82523d6000602084013e610ebe565b606091505b508051610edd5760405162461bcd60e51b81526004016103f490611442565b805181602001fd5b6001600160e01b031916630a85bd0160e11b14905061074a565b506001949350505050565b606081610f2e5750506040805180820190915260018152600360fc1b602082015290565b8160005b8115610f585780610f428161158c565b9150610f519050600a836114fa565b9150610f32565b60008167ffffffffffffffff811115610f8157634e487b7160e01b600052604160045260246000fd5b6040519080825280601f01601f191660200182016040528015610fab576020820181803683370190505b5090505b841561074a57610fc060018361150e565b9150610fcd600a866115a7565b610fd89060306114e2565b60f81b818381518110610ffb57634e487b7160e01b600052603260045260246000fd5b60200101906001600160f81b031916908160001a90535061101d600a866114fa565b9450610faf565b82805461103090611551565b90600052602060002090601f0160209004810192826110525760008555611098565b82601f1061106b57805160ff1916838001178555611098565b82800160010185558215611098579182015b8281111561109857825182559160200191906001019061107d565b506110a49291506110a8565b5090565b5b808211156110a457600081556001016110a9565b600067ffffffffffffffff808411156110d8576110d86115e7565b604051601f8501601f19908116603f01168101908282118183101715611100576111006115e7565b8160405280935085815286868601111561111957600080fd5b858560208301376000602087830101525050509392505050565b80356001600160a01b038116811461114a57600080fd5b919050565b600082601f83011261115f578081fd5b6105f3838335602085016110bd565b60006020828403121561117f578081fd5b6105f382611133565b6000806040838503121561119a578081fd5b6111a383611133565b91506111b160208401611133565b90509250929050565b6000806000606084860312156111ce578081fd5b6111d784611133565b92506111e560208501611133565b9150604084013590509250925092565b6000806000806080858703121561120a578081fd5b61121385611133565b935061122160208601611133565b925060408501359150606085013567ffffffffffffffff811115611243578182fd5b8501601f81018713611253578182fd5b611262878235602084016110bd565b91505092959194509250565b60008060408385031215611280578182fd5b61128983611133565b91506020830135801515811461129d578182fd5b809150509250929050565b600080604083850312156112ba578182fd5b6112c383611133565b946020939093013593505050565b6000602082840312156112e2578081fd5b81356105f3816115fd565b6000602082840312156112fe578081fd5b81516105f3816115fd565b60006020828403121561131a578081fd5b813567ffffffffffffffff811115611330578182fd5b61074a8482850161114f565b6000806040838503121561134e578182fd5b823567ffffffffffffffff811115611364578283fd5b6113708582860161114f565b9250506111b160208401611133565b600060208284031215611390578081fd5b5035919050565b600081518084526113af816020860160208601611525565b601f01601f19169290920160200192915050565b600083516113d5818460208801611525565b8351908301906113e9818360208801611525565b01949350505050565b6001600160a01b038581168252841660208201526040810183905260806060820181905260009061142590830184611397565b9695505050505050565b6020815260006105f36020830184611397565b60208082526032908201527f4552433732313a207472616e7366657220746f206e6f6e20455243373231526560408201527131b2b4bb32b91034b6b83632b6b2b73a32b960711b606082015260800190565b6020808252602e908201527f4552433732313a2063616c6c6572206973206e6f7420746f6b656e206f776e6560408201526d1c881b9bdc88185c1c1c9bdd995960921b606082015260800190565b600082198211156114f5576114f56115bb565b500190565b600082611509576115096115d1565b500490565b600082821015611520576115206115bb565b500390565b60005b83811015611540578181015183820152602001611528565b8381111561063b5750506000910152565b600181811c9082168061156557607f821691505b6020821081141561158657634e487b7160e01b600052602260045260246000fd5b50919050565b60006000198214156115a0576115a06115bb565b5060010190565b6000826115b6576115b66115d1565b500690565b634e487b7160e01b600052601160045260246000fd5b634e487b7160e01b600052601260045260246000fd5b634e487b7160e01b600052604160045260246000fd5b6001600160e01b0319811681146107b157600080fdfea26469706673582212204ca1e2cbcf6e864fa879290107e0779b43807766d81ef600e81119bd1957c8c564736f6c63430008040033",
  "linkReferences": {},
  "deployedLinkReferences": {}
}