{
  "_format": "hh-sol-artifact-1",
  "contractName": "NFT",
  "sourceName": "contracts/NFT.sol",
  "abi": [
    {
      "inputs": [],
      "stateMutability": "nonpayable",
      "type": "constructor"
    },
    {
      "anonymous": false,
      "inputs": [
        {
          "indexed": true,
          "internalType": "address",
          "name": "owner",
          "type": "address"
        },
        {
          "indexed": true,
          "internalType": "address",
          "name": "approved",
          "type": "address"
        },
        {
          "indexed": true,
          "internalType": "uint256",
          "name": "tokenId",
          "type": "uint256"
        }
      ],
      "name": "Approval",
      "type": "event"
    },
    {
      "anonymous": false,
      "inputs": [
        {
          "indexed": true,
          "internalType": "address",
          "name": "owner",
          "type": "address"
        },
        {
          "indexed": true,
          "internalType": "address",
          "name": "operator",
          "type": "address"
        },
        {
          "indexed": false,
          "internalType": "bool",
          "name": "approved",
          "type": "bool"
        }
      ],
      "name": "ApprovalForAll",
      "type": "event"
    },
    {
      "anonymous": false,
      "inputs": [
        {
          "indexed": true,
          "internalType": "uint256",
          "name": "tokenId",
          "type": "uint256"
        },
        {
          "indexed": false,
          "internalType": "string",
          "name": "tokenURI",
          "type": "string"
        }
      ],
      "name": "NFTMinted",
      "type": "event"
    },
    {
      "anonymous": false,
      "inputs": [
        {
          "indexed": true,
          "internalType": "address",
          "name": "from",
          "type": "address"
        },
        {
          "indexed": true,
          "internalType": "address",
          "name": "to",
          "type": "address"
        },
        {
          "indexed": true,
          "internalType": "uint256",
          "name": "tokenId",
          "type": "uint256"
        }
      ],
      "name": "Transfer",
      "type": "event"
    },
    {
      "inputs": [
        {
          "internalType": "address",
          "name": "to",
          "type": "address"
        },
        {
          "internalType": "uint256",
          "name": "tokenId",
          "type": "uint256"
        }
      ],
      "name": "approve",
      "outputs": [],
      "stateMutability": "nonpayable",
      "type": "function"
    },
    {
      "inputs": [
        {
          "internalType": "address",
          "name": "owner",
          "type": "address"
        }
      ],
      "name": "balanceOf",
      "outputs": [
        {
          "internalType": "uint256",
          "name": "",
          "type": "uint256"
        }
      ],
      "stateMutability": "view",
      "type": "function"
    },
    {
      "inputs": [
        {
          "internalType": "string",
          "name": "tokenURI",
          "type": "string"
        }
      ],
      "name": "createToken",
      "outputs": [
        {
          "internalType": "uint256",
          "name": "",
          "type": "uint256"
        }
      ],
      "stateMutability": "nonpayable",
      "type": "function"
    },
    {
      "inputs": [
        {
          "internalType": "string",
          "name": "tokenURI",
          "type": "string"
        },
        {
          "internalType": "address",
          "name": "destinationAddress",
          "type": "address"
        }
      ],
      "name": "createTokenOnBehalfOf",
      "outputs": [
        {
          "internalType": "uint256",
          "name": "",
          "type": "uint256"
        }
      ],
      "stateMutability": "nonpayable",
      "type": "function"
    },
    {
      "inputs": [
        {
          "internalType": "uint256",
          "name": "tokenId",
          "type": "uint256"
        }
      ],
      "name": "getApproved",
      "outputs": [
        {
          "internalType": "address",
          "name": "",
          "type": "address"
        }
      ],
      "stateMutability": "view",
      "type": "function"
    },
    {
      "inputs": [
        {
          "internalType": "address",
          "name": "owner",
          "type": "address"
        },
        {
          "internalType": "address",
          "name": "operator",
          "type": "address"
        }
      ],
      "name": "isApprovedForAll",
      "outputs": [
        {
          "internalType": "bool",
          "name": "",
          "type": "bool"
        }
      ],
      "stateMutability": "view",
      "type": "function"
    },
    {
      "inputs": [],
      "name": "name",
      "outputs": [
        {
          "internalType": "string",
          "name": "",
          "type": "string"
        }
      ],
      "stateMutability": "view",
      "type": "function"
    },
    {
      "inputs": [
        {
          "internalType": "uint256",
          "name": "tokenId",
          "type": "uint256"
        }
      ],
      "name": "ownerOf",
      "outputs": [
        {
          "internalType": "address",
          "name": "",
          "type": "address"
        }
      ],
      "stateMutability": "view",
      "type": "function"
    },
    {
      "inputs": [
        {
          "internalType": "address",
          "name": "from",
          "type": "address"
        },
        {
          "internalType": "address",
          "name": "to",
          "type": "address"
        },
        {
          "internalType": "uint256",
          "name": "tokenId",
          "type": "uint256"
        }
      ],
      "name": "safeTransferFrom",
      "outputs": [],
      "stateMutability": "nonpayable",
      "type": "function"
    },
    {
      "inputs": [
        {
          "internalType": "address",
          "name": "from",
          "type": "address"
        },
        {
          "internalType": "address",
          "name": "to",
          "type": "address"
        },
        {
          "internalType": "uint256",
          "name": "tokenId",
          "type": "uint256"
        },
        {
          "internalType": "bytes",
          "name": "_data",
          "type": "bytes"
        }
      ],
      "name": "safeTransferFrom",
      "outputs": [],
      "stateMutability": "nonpayable",
      "type": "function"
    },
    {
      "inputs": [
        {
          "internalType": "address",
          "name": "operator",
          "type": "address"
        },
        {
          "internalType": "bool",
          "name": "approved",
          "type": "bool"
        }
      ],
      "name": "setApprovalForAll",
      "outputs": [],
      "stateMutability": "nonpayable",
      "type": "function"
    },
    {
      "inputs": [
        {
          "internalType": "bytes4",
          "name": "interfaceId",
          "type": "bytes4"
        }
      ],
      "name": "supportsInterface",
      "outputs": [
        {
          "internalType": "bool",
          "name": "",
          "type": "bool"
        }
      ],
      "stateMutability": "view",
      "type": "function"
    },
    {
      "inputs": [],
      "name": "symbol",
      "outputs": [
        {
          "internalType": "string",
          "name": "",
          "type": "string"
        }
      ],
      "stateMutability": "view",
      "type": "function"
    },
    {
      "inputs": [
        {
          "internalType": "uint256",
          "name": "tokenId",
          "type": "uint256"
        }
      ],
      "name": "tokenURI",
      "outputs": [
        {
          "internalType": "string",
          "name": "",
          "type": "string"
        }
      ],
      "stateMutability": "view",
      "type": "function"
    },
    {
      "inputs": [
        {
          "internalType": "address",
          "name": "from",
          "type": "address"
        },
        {
          "internalType": "address",
          "name": "to",
          "type": "address"
        },
        {
          "internalType": "uint256",
          "name": "tokenId",
          "type": "uint256"
        }
      ],
      "name": "transferFrom",
      "outputs": [],
      "stateMutability": "nonpayable",
      "type": "function"
    }
  ],
  "bytecode": "0x60806040523480156200001157600080fd5b506040805180820182526009815268105d1a5b184813919560ba1b602080830191825283518085019094526008845267105512531053919560c21b908401528151919291620000639160009162000082565b5080516200007990600190602084019062000082565b50505062000165565b828054620000909062000128565b90600052602060002090601f016020900481019282620000b45760008555620000ff565b82601f10620000cf57805160ff1916838001178555620000ff565b82800160010185558215620000ff579182015b82811115620000ff578251825591602001919060010190620000e2565b506200010d92915062000111565b5090565b5b808211156200010d576000815560010162000112565b600181811c908216806200013d57607f821691505b602082108114156200015f57634e487b7160e01b600052602260045260246000fd5b50919050565b61179a80620001756000396000f3fe608060405234801561001057600080fd5b50600436106100f55760003560e01c80636352211e11610097578063a22cb46511610066578063a22cb465146101ff578063b88d4fde14610212578063c87b56dd14610225578063e985e9c51461023857600080fd5b80636352211e146101be57806370a08231146101d157806395d89b41146101e457806399531316146101ec57600080fd5b8063095ea7b3116100d3578063095ea7b31461016257806323b872dd1461017757806342842e0e1461018a57806345576f941461019d57600080fd5b806301ffc9a7146100fa57806306fdde0314610122578063081812fc14610137575b600080fd5b61010d61010836600461141c565b610274565b60405190151581526020015b60405180910390f35b61012a6102c6565b604051610119919061157a565b61014a6101453660046114ca565b610358565b6040516001600160a01b039091168152602001610119565b6101756101703660046113f3565b6103e5565b005b610175610185366004611305565b6104fb565b610175610198366004611305565b61052c565b6101b06101ab366004611454565b610547565b604051908152602001610119565b61014a6101cc3660046114ca565b610553565b6101b06101df3660046112b9565b6105ca565b61012a610651565b6101b06101fa366004611487565b610660565b61017561020d3660046113b9565b610673565b610175610220366004611340565b610682565b61012a6102333660046114ca565b6106ba565b61010d6102463660046112d3565b6001600160a01b03918216600090815260056020908152604080832093909416825291909152205460ff1690565b60006001600160e01b031982166380ac58cd60e01b14806102a557506001600160e01b03198216635b5e139f60e01b145b806102c057506301ffc9a760e01b6001600160e01b03198316145b92915050565b6060600080546102d59061169f565b80601f01602080910402602001604051908101604052809291908181526020018280546103019061169f565b801561034e5780601f106103235761010080835404028352916020019161034e565b820191906000526020600020905b81548152906001019060200180831161033157829003601f168201915b5050505050905090565b600061036382610831565b6103c95760405162461bcd60e51b815260206004820152602c60248201527f4552433732313a20617070726f76656420717565727920666f72206e6f6e657860448201526b34b9ba32b73a103a37b5b2b760a11b60648201526084015b60405180910390fd5b506000908152600460205260409020546001600160a01b031690565b60006103f082610553565b9050806001600160a01b0316836001600160a01b0316141561045e5760405162461bcd60e51b815260206004820152602160248201527f4552433732313a20617070726f76616c20746f2063757272656e74206f776e656044820152603960f91b60648201526084016103c0565b336001600160a01b038216148061047a575061047a8133610246565b6104ec5760405162461bcd60e51b815260206004820152603860248201527f4552433732313a20617070726f76652063616c6c6572206973206e6f74206f7760448201527f6e6572206e6f7220617070726f76656420666f7220616c6c000000000000000060648201526084016103c0565b6104f6838361084e565b505050565b61050533826108bc565b6105215760405162461bcd60e51b81526004016103c0906115df565b6104f68383836109a5565b6104f683838360405180602001604052806000815250610682565b60006102c08233610b41565b6000818152600260205260408120546001600160a01b0316806102c05760405162461bcd60e51b815260206004820152602960248201527f4552433732313a206f776e657220717565727920666f72206e6f6e657869737460448201526832b73a103a37b5b2b760b91b60648201526084016103c0565b60006001600160a01b0382166106355760405162461bcd60e51b815260206004820152602a60248201527f4552433732313a2062616c616e636520717565727920666f7220746865207a65604482015269726f206164647265737360b01b60648201526084016103c0565b506001600160a01b031660009081526003602052604090205490565b6060600180546102d59061169f565b600061066c8383610b41565b9392505050565b61067e338383610bb1565b5050565b61068c33836108bc565b6106a85760405162461bcd60e51b81526004016103c0906115df565b6106b484848484610c80565b50505050565b60606106c582610831565b61072b5760405162461bcd60e51b815260206004820152603160248201527f45524337323155524953746f726167653a2055524920717565727920666f72206044820152703737b732bc34b9ba32b73a103a37b5b2b760791b60648201526084016103c0565b600082815260066020526040812080546107449061169f565b80601f01602080910402602001604051908101604052809291908181526020018280546107709061169f565b80156107bd5780601f10610792576101008083540402835291602001916107bd565b820191906000526020600020905b8154815290600101906020018083116107a057829003601f168201915b5050505050905060006107db60408051602081019091526000815290565b90508051600014156107ee575092915050565b81511561082057808260405160200161080892919061150e565b60405160208183030381529060405292505050919050565b61082984610cb3565b949350505050565b6000908152600260205260409020546001600160a01b0316151590565b600081815260046020526040902080546001600160a01b0319166001600160a01b038416908117909155819061088382610553565b6001600160a01b03167f8c5be1e5ebec7d5bd14f71427d1e84f3dd0314c0f7b2291e5b200ac8c7c3b92560405160405180910390a45050565b60006108c782610831565b6109285760405162461bcd60e51b815260206004820152602c60248201527f4552433732313a206f70657261746f7220717565727920666f72206e6f6e657860448201526b34b9ba32b73a103a37b5b2b760a11b60648201526084016103c0565b600061093383610553565b9050806001600160a01b0316846001600160a01b0316148061097a57506001600160a01b0380821660009081526005602090815260408083209388168352929052205460ff165b806108295750836001600160a01b031661099384610358565b6001600160a01b031614949350505050565b826001600160a01b03166109b882610553565b6001600160a01b031614610a1c5760405162461bcd60e51b815260206004820152602560248201527f4552433732313a207472616e736665722066726f6d20696e636f72726563742060448201526437bbb732b960d91b60648201526084016103c0565b6001600160a01b038216610a7e5760405162461bcd60e51b8152602060048201526024808201527f4552433732313a207472616e7366657220746f20746865207a65726f206164646044820152637265737360e01b60648201526084016103c0565b610a8960008261084e565b6001600160a01b0383166000908152600360205260408120805460019290610ab290849061165c565b90915550506001600160a01b0382166000908152600360205260408120805460019290610ae0908490611630565b909155505060008181526002602052604080822080546001600160a01b0319166001600160a01b0386811691821790925591518493918716917fddf252ad1be2c89b69c2b068fc378daa952ba7f163c4a11628f55a4df523b3ef91a4505050565b6000610b51600780546001019055565b6000610b5c60075490565b9050610b688382610d8a565b610b728185610ebd565b807f9e0bfaf38878aad3ebd19b8c8065288eb130f0499a7378363d4652515588ac9685604051610ba2919061157a565b60405180910390a25092915050565b816001600160a01b0316836001600160a01b03161415610c135760405162461bcd60e51b815260206004820152601960248201527f4552433732313a20617070726f766520746f2063616c6c65720000000000000060448201526064016103c0565b6001600160a01b03838116600081815260056020908152604080832094871680845294825291829020805460ff191686151590811790915591519182527f17307eab39ab6107e8899845ad3d59bd9653f200f220920489ca2b5937696c31910160405180910390a3505050565b610c8b8484846109a5565b610c9784848484610f48565b6106b45760405162461bcd60e51b81526004016103c09061158d565b6060610cbe82610831565b610d225760405162461bcd60e51b815260206004820152602f60248201527f4552433732314d657461646174613a2055524920717565727920666f72206e6f60448201526e3732bc34b9ba32b73a103a37b5b2b760891b60648201526084016103c0565b6000610d3960408051602081019091526000815290565b90506000815111610d59576040518060200160405280600081525061066c565b80610d6384611055565b604051602001610d7492919061150e565b6040516020818303038152906040529392505050565b6001600160a01b038216610de05760405162461bcd60e51b815260206004820181905260248201527f4552433732313a206d696e7420746f20746865207a65726f206164647265737360448201526064016103c0565b610de981610831565b15610e365760405162461bcd60e51b815260206004820152601c60248201527f4552433732313a20746f6b656e20616c7265616479206d696e7465640000000060448201526064016103c0565b6001600160a01b0382166000908152600360205260408120805460019290610e5f908490611630565b909155505060008181526002602052604080822080546001600160a01b0319166001600160a01b03861690811790915590518392907fddf252ad1be2c89b69c2b068fc378daa952ba7f163c4a11628f55a4df523b3ef908290a45050565b610ec682610831565b610f295760405162461bcd60e51b815260206004820152602e60248201527f45524337323155524953746f726167653a2055524920736574206f66206e6f6e60448201526d32bc34b9ba32b73a103a37b5b2b760911b60648201526084016103c0565b600082815260066020908152604090912082516104f69284019061116f565b60006001600160a01b0384163b1561104a57604051630a85bd0160e11b81526001600160a01b0385169063150b7a0290610f8c90339089908890889060040161153d565b602060405180830381600087803b158015610fa657600080fd5b505af1925050508015610fd6575060408051601f3d908101601f19168201909252610fd391810190611438565b60015b611030573d808015611004576040519150601f19603f3d011682016040523d82523d6000602084013e611009565b606091505b5080516110285760405162461bcd60e51b81526004016103c09061158d565b805181602001fd5b6001600160e01b031916630a85bd0160e11b149050610829565b506001949350505050565b6060816110795750506040805180820190915260018152600360fc1b602082015290565b8160005b81156110a3578061108d816116da565b915061109c9050600a83611648565b915061107d565b60008167ffffffffffffffff8111156110cc57634e487b7160e01b600052604160045260246000fd5b6040519080825280601f01601f1916602001820160405280156110f6576020820181803683370190505b5090505b84156108295761110b60018361165c565b9150611118600a866116f5565b611123906030611630565b60f81b81838151811061114657634e487b7160e01b600052603260045260246000fd5b60200101906001600160f81b031916908160001a905350611168600a86611648565b94506110fa565b82805461117b9061169f565b90600052602060002090601f01602090048101928261119d57600085556111e3565b82601f106111b657805160ff19168380011785556111e3565b828001600101855582156111e3579182015b828111156111e35782518255916020019190600101906111c8565b506111ef9291506111f3565b5090565b5b808211156111ef57600081556001016111f4565b600067ffffffffffffffff8084111561122357611223611735565b604051601f8501601f19908116603f0116810190828211818310171561124b5761124b611735565b8160405280935085815286868601111561126457600080fd5b858560208301376000602087830101525050509392505050565b80356001600160a01b038116811461129557600080fd5b919050565b600082601f8301126112aa578081fd5b61066c83833560208501611208565b6000602082840312156112ca578081fd5b61066c8261127e565b600080604083850312156112e5578081fd5b6112ee8361127e565b91506112fc6020840161127e565b90509250929050565b600080600060608486031215611319578081fd5b6113228461127e565b92506113306020850161127e565b9150604084013590509250925092565b60008060008060808587031215611355578081fd5b61135e8561127e565b935061136c6020860161127e565b925060408501359150606085013567ffffffffffffffff81111561138e578182fd5b8501601f8101871361139e578182fd5b6113ad87823560208401611208565b91505092959194509250565b600080604083850312156113cb578182fd5b6113d48361127e565b9150602083013580151581146113e8578182fd5b809150509250929050565b60008060408385031215611405578182fd5b61140e8361127e565b946020939093013593505050565b60006020828403121561142d578081fd5b813561066c8161174b565b600060208284031215611449578081fd5b815161066c8161174b565b600060208284031215611465578081fd5b813567ffffffffffffffff81111561147b578182fd5b6108298482850161129a565b60008060408385031215611499578182fd5b823567ffffffffffffffff8111156114af578283fd5b6114bb8582860161129a565b9250506112fc6020840161127e565b6000602082840312156114db578081fd5b5035919050565b600081518084526114fa816020860160208601611673565b601f01601f19169290920160200192915050565b60008351611520818460208801611673565b835190830190611534818360208801611673565b01949350505050565b6001600160a01b0385811682528416602082015260408101839052608060608201819052600090611570908301846114e2565b9695505050505050565b60208152600061066c60208301846114e2565b60208082526032908201527f4552433732313a207472616e7366657220746f206e6f6e20455243373231526560408201527131b2b4bb32b91034b6b83632b6b2b73a32b960711b606082015260800190565b60208082526031908201527f4552433732313a207472616e736665722063616c6c6572206973206e6f74206f6040820152701ddb995c881b9bdc88185c1c1c9bdd9959607a1b606082015260800190565b6000821982111561164357611643611709565b500190565b6000826116575761165761171f565b500490565b60008282101561166e5761166e611709565b500390565b60005b8381101561168e578181015183820152602001611676565b838111156106b45750506000910152565b600181811c908216806116b357607f821691505b602082108114156116d457634e487b7160e01b600052602260045260246000fd5b50919050565b60006000198214156116ee576116ee611709565b5060010190565b6000826117045761170461171f565b500690565b634e487b7160e01b600052601160045260246000fd5b634e487b7160e01b600052601260045260246000fd5b634e487b7160e01b600052604160045260246000fd5b6001600160e01b03198116811461176157600080fd5b5056fea26469706673582212204732c627f3cb26864f6a103c28cd5ec91d1dc7e7033cdb2c99428224dc62a97964736f6c63430008040033",
  "linkReferences": {},
  "deployedLinkReferences": {}
}