{
  "_format": "hh-sol-artifact-1",
  "contractName": "NFTMarket",
  "sourceName": "contracts/Market.sol",
  "abi": [
    {
      "inputs": [],
      "stateMutability": "nonpayable",
      "type": "constructor"
    },
    {
      "anonymous": false,
      "inputs": [
        {
          "indexed": true,
          "internalType": "uint256",
          "name": "itemId",
          "type": "uint256"
        },
        {
          "indexed": true,
          "internalType": "address",
          "name": "nftContract",
          "type": "address"
        },
        {
          "indexed": true,
          "internalType": "uint256",
          "name": "tokenId",
          "type": "uint256"
        },
        {
          "indexed": false,
          "internalType": "address",
          "name": "seller",
          "type": "address"
        },
        {
          "indexed": false,
          "internalType": "address",
          "name": "owner",
          "type": "address"
        },
        {
          "indexed": false,
          "internalType": "uint256",
          "name": "price",
          "type": "uint256"
        },
        {
          "indexed": false,
          "internalType": "bool",
          "name": "sold",
          "type": "bool"
        },
        {
          "indexed": false,
          "internalType": "bool",
          "name": "forSale",
          "type": "bool"
        }
      ],
      "name": "MarketItemCreated",
      "type": "event"
    },
    {
      "inputs": [
        {
          "internalType": "address",
          "name": "nftContract",
          "type": "address"
        },
        {
          "internalType": "uint256",
          "name": "tokenId",
          "type": "uint256"
        },
        {
          "internalType": "uint256",
          "name": "price",
          "type": "uint256"
        }
      ],
      "name": "createMarketItem",
      "outputs": [
        {
          "internalType": "uint256",
          "name": "",
          "type": "uint256"
        }
      ],
      "stateMutability": "payable",
      "type": "function"
    },
    {
      "inputs": [
        {
          "internalType": "address",
          "name": "nftContract",
          "type": "address"
        },
        {
          "internalType": "uint256",
          "name": "itemId",
          "type": "uint256"
        }
      ],
      "name": "createMarketSale",
      "outputs": [],
      "stateMutability": "payable",
      "type": "function"
    },
    {
      "inputs": [],
      "name": "fetchItemsCreated",
      "outputs": [
        {
          "components": [
            {
              "internalType": "uint256",
              "name": "itemId",
              "type": "uint256"
            },
            {
              "internalType": "address",
              "name": "nftContract",
              "type": "address"
            },
            {
              "internalType": "uint256",
              "name": "tokenId",
              "type": "uint256"
            },
            {
              "internalType": "address payable",
              "name": "seller",
              "type": "address"
            },
            {
              "internalType": "address payable",
              "name": "owner",
              "type": "address"
            },
            {
              "internalType": "uint256",
              "name": "price",
              "type": "uint256"
            },
            {
              "internalType": "bool",
              "name": "sold",
              "type": "bool"
            },
            {
              "internalType": "bool",
              "name": "forSale",
              "type": "bool"
            }
          ],
          "internalType": "struct NFTMarket.MarketItem[]",
          "name": "",
          "type": "tuple[]"
        }
      ],
      "stateMutability": "view",
      "type": "function"
    },
    {
      "inputs": [],
      "name": "fetchMarketItems",
      "outputs": [
        {
          "components": [
            {
              "internalType": "uint256",
              "name": "itemId",
              "type": "uint256"
            },
            {
              "internalType": "address",
              "name": "nftContract",
              "type": "address"
            },
            {
              "internalType": "uint256",
              "name": "tokenId",
              "type": "uint256"
            },
            {
              "internalType": "address payable",
              "name": "seller",
              "type": "address"
            },
            {
              "internalType": "address payable",
              "name": "owner",
              "type": "address"
            },
            {
              "internalType": "uint256",
              "name": "price",
              "type": "uint256"
            },
            {
              "internalType": "bool",
              "name": "sold",
              "type": "bool"
            },
            {
              "internalType": "bool",
              "name": "forSale",
              "type": "bool"
            }
          ],
          "internalType": "struct NFTMarket.MarketItem[]",
          "name": "",
          "type": "tuple[]"
        }
      ],
      "stateMutability": "view",
      "type": "function"
    },
    {
      "inputs": [],
      "name": "fetchMyNFTs",
      "outputs": [
        {
          "components": [
            {
              "internalType": "uint256",
              "name": "itemId",
              "type": "uint256"
            },
            {
              "internalType": "address",
              "name": "nftContract",
              "type": "address"
            },
            {
              "internalType": "uint256",
              "name": "tokenId",
              "type": "uint256"
            },
            {
              "internalType": "address payable",
              "name": "seller",
              "type": "address"
            },
            {
              "internalType": "address payable",
              "name": "owner",
              "type": "address"
            },
            {
              "internalType": "uint256",
              "name": "price",
              "type": "uint256"
            },
            {
              "internalType": "bool",
              "name": "sold",
              "type": "bool"
            },
            {
              "internalType": "bool",
              "name": "forSale",
              "type": "bool"
            }
          ],
          "internalType": "struct NFTMarket.MarketItem[]",
          "name": "",
          "type": "tuple[]"
        }
      ],
      "stateMutability": "view",
      "type": "function"
    },
    {
      "inputs": [
        {
          "internalType": "address",
          "name": "receiver",
          "type": "address"
        }
      ],
      "name": "getAddressCredits",
      "outputs": [
        {
          "internalType": "uint256",
          "name": "",
          "type": "uint256"
        }
      ],
      "stateMutability": "view",
      "type": "function"
    },
    {
      "inputs": [],
      "name": "getSalesFeeBasisPoints",
      "outputs": [
        {
          "internalType": "uint256",
          "name": "",
          "type": "uint256"
        }
      ],
      "stateMutability": "view",
      "type": "function"
    },
    {
      "inputs": [
        {
          "internalType": "address",
          "name": "nftContract",
          "type": "address"
        },
        {
          "internalType": "uint256",
          "name": "itemId",
          "type": "uint256"
        }
      ],
      "name": "unListMarketItem",
      "outputs": [],
      "stateMutability": "payable",
      "type": "function"
    },
    {
      "inputs": [],
      "name": "withdrawCredits",
      "outputs": [],
      "stateMutability": "nonpayable",
      "type": "function"
    }
  ],
  "bytecode": "0x608060405260fa60045561271060055534801561001b57600080fd5b506001600055600380546001600160a01b0319163317905561112d806100426000396000f3fe6080604052600436106100865760003560e01c8063717f6dfb11610059578063717f6dfb146101015780639cc1809714610116578063c23b139e1461014c578063e4e6d5181461015f578063f064c32e1461017457600080fd5b80630f08efe01461008b578063202e3740146100b657806323562424146100cb57806358eb2df5146100e0575b600080fd5b34801561009757600080fd5b506100a0610189565b6040516100ad9190610f80565b60405180910390f35b3480156100c257600080fd5b506100a0610342565b6100de6100d9366004610f25565b610539565b005b6100f36100ee366004610f4e565b610664565b6040519081526020016100ad565b34801561010d57600080fd5b506100de610939565b34801561012257600080fd5b506100f3610131366004610f04565b6001600160a01b031660009081526007602052604090205490565b6100de61015a366004610f25565b610a52565b34801561016b57600080fd5b506004546100f3565b34801561018057600080fd5b506100a0610c7c565b6060600061019660015490565b905060006101a360025490565b6001546101b091906110af565b90506000808267ffffffffffffffff8111156101dc57634e487b7160e01b600052604160045260246000fd5b60405190808252806020026020018201604052801561021557816020015b610202610ea4565b8152602001906001900390816101fa5790505b50905060005b84811015610339576000600681610233846001611058565b81526020810191909152604001600020600401546001600160a01b03161415610327576000610263826001611058565b600081815260066020818152604092839020835161010080820186528254825260018301546001600160a01b039081169483019490945260028301549582019590955260038201548316606082015260048201549092166080830152600581015460a08301529182015460ff808216151560c0840152939004909216151560e083015285519293509185908790811061030c57634e487b7160e01b600052603260045260246000fd5b6020908102919091010152610322600186611058565b945050505b80610331816110c6565b91505061021b565b50949350505050565b6060600061034f60015490565b905060008060005b838110156103b257336006600061036f846001611058565b81526020810191909152604001600020600401546001600160a01b031614156103a05761039d600184611058565b92505b806103aa816110c6565b915050610357565b5060008267ffffffffffffffff8111156103dc57634e487b7160e01b600052604160045260246000fd5b60405190808252806020026020018201604052801561041557816020015b610402610ea4565b8152602001906001900390816103fa5790505b50905060005b84811015610339573360066000610433846001611058565b81526020810191909152604001600020600401546001600160a01b03161415610527576000610463826001611058565b600081815260066020818152604092839020835161010080820186528254825260018301546001600160a01b039081169483019490945260028301549582019590955260038201548316606082015260048201549092166080830152600581015460a08301529182015460ff808216151560c0840152939004909216151560e083015285519293509185908790811061050c57634e487b7160e01b600052603260045260246000fd5b6020908102919091010152610522600186611058565b945050505b80610531816110c6565b91505061041b565b600260005414156105655760405162461bcd60e51b815260040161055c90611021565b60405180910390fd5b60026000908155818152600660205260409020600301546001600160a01b031633146105d35760405162461bcd60e51b815260206004820152601e60248201527f4f6e6c792073656c6c6572206d617920756e6c69737420616e206974656d0000604482015260640161055c565b60008181526006602081905260409182902060028101549101805461ff001916905590516323b872dd60e01b8152306004820152336024820152604481018290526001600160a01b038416906323b872dd90606401600060405180830381600087803b15801561064257600080fd5b505af1158015610656573d6000803e3d6000fd5b505060016000555050505050565b6000600260005414156106895760405162461bcd60e51b815260040161055c90611021565b6002600055816106db5760405162461bcd60e51b815260206004820152601c60248201527f5072696365206d757374206265206174206c6561737420312077656900000000604482015260640161055c565b6106e9600180546001019055565b60006106f460015490565b9050604051806101000160405280828152602001866001600160a01b03168152602001858152602001336001600160a01b0316815260200160006001600160a01b0316815260200184815260200160001515815260200160011515815250600660008381526020019081526020016000206000820151816000015560208201518160010160006101000a8154816001600160a01b0302191690836001600160a01b031602179055506040820151816002015560608201518160030160006101000a8154816001600160a01b0302191690836001600160a01b0316021790555060808201518160040160006101000a8154816001600160a01b0302191690836001600160a01b0316021790555060a0820151816005015560c08201518160060160006101000a81548160ff02191690831515021790555060e08201518160060160016101000a81548160ff021916908315150217905550905050846001600160a01b03166323b872dd3330876040518463ffffffff1660e01b815260040161089c939291906001600160a01b039384168152919092166020820152604081019190915260600190565b600060405180830381600087803b1580156108b657600080fd5b505af11580156108ca573d6000803e3d6000fd5b50506040805133815260006020820181905281830188905260608201526001608082015290518793506001600160a01b038916925084917fc99151f4453170a67bc7441775fde1a3bc3220c06645df1121e703aab5e7da5d919081900360a00190a46001600055949350505050565b33600090815260076020526040902054806109ad5760405162461bcd60e51b815260206004820152602e60248201527f546865726520617265206e6f206372656469747320696e20746869732072656360448201526d697069656e74206164647265737360901b606482015260840161055c565b80471015610a135760405162461bcd60e51b815260206004820152602d60248201527f546865726520617265206e6f206372656469747320696e207468697320636f6e60448201526c7472616374206164647265737360981b606482015260840161055c565b336000818152600760205260408082208290555183156108fc0291849190818181858888f19350505050158015610a4e573d6000803e3d6000fd5b5050565b60026000541415610a755760405162461bcd60e51b815260040161055c90611021565b60026000818155828152600660208190526040909120600581015492810154910154610100900460ff16610af75760405162461bcd60e51b815260206004820152602360248201527f54686973206974656d206973206e6f7420617661696c61626c6520666f722073604482015262616c6560e81b606482015260840161055c565b813414610b6e576040805162461bcd60e51b81526020600482015260248101919091527f506c65617365207375626d6974207468652061736b696e67207072696365206960448201527f6e206f7264657220746f20636f6d706c65746520746865207075726368617365606482015260840161055c565b6000838152600660205260408120600301546005546004546001600160a01b039092169291610b9d9086611090565b610ba79190611070565b90506000610bb582866110af565b9050610bc18382610e73565b6040516323b872dd60e01b8152306004820152336024820152604481018590526001600160a01b038816906323b872dd90606401600060405180830381600087803b158015610c0f57600080fd5b505af1158015610c23573d6000803e3d6000fd5b50505060008781526006602081905260409091206004810180546001600160a01b0319163317905501805460ff1916600117905550610c66600280546001019055565b600354610656906001600160a01b031683610e73565b60606000610c8960015490565b905060008060005b83811015610cec573360066000610ca9846001611058565b81526020810191909152604001600020600301546001600160a01b03161415610cda57610cd7600184611058565b92505b80610ce4816110c6565b915050610c91565b5060008267ffffffffffffffff811115610d1657634e487b7160e01b600052604160045260246000fd5b604051908082528060200260200182016040528015610d4f57816020015b610d3c610ea4565b815260200190600190039081610d345790505b50905060005b84811015610339573360066000610d6d846001611058565b81526020810191909152604001600020600301546001600160a01b03161415610e61576000610d9d826001611058565b600081815260066020818152604092839020835161010080820186528254825260018301546001600160a01b039081169483019490945260028301549582019590955260038201548316606082015260048201549092166080830152600581015460a08301529182015460ff808216151560c0840152939004909216151560e0830152855192935091859087908110610e4657634e487b7160e01b600052603260045260246000fd5b6020908102919091010152610e5c600186611058565b945050505b80610e6b816110c6565b915050610d55565b6001600160a01b03821660009081526007602052604081208054839290610e9b908490611058565b90915550505050565b6040805161010081018252600080825260208201819052918101829052606081018290526080810182905260a0810182905260c0810182905260e081019190915290565b80356001600160a01b0381168114610eff57600080fd5b919050565b600060208284031215610f15578081fd5b610f1e82610ee8565b9392505050565b60008060408385031215610f37578081fd5b610f4083610ee8565b946020939093013593505050565b600080600060608486031215610f62578081fd5b610f6b84610ee8565b95602085013595506040909401359392505050565b602080825282518282018190526000919060409081850190868401855b8281101561101457815180518552868101516001600160a01b039081168887015286820151878701526060808301518216908701526080808301519091169086015260a0808201519086015260c08082015115159086015260e0908101511515908501526101009093019290850190600101610f9d565b5091979650505050505050565b6020808252601f908201527f5265656e7472616e637947756172643a207265656e7472616e742063616c6c00604082015260600190565b6000821982111561106b5761106b6110e1565b500190565b60008261108b57634e487b7160e01b81526012600452602481fd5b500490565b60008160001904831182151516156110aa576110aa6110e1565b500290565b6000828210156110c1576110c16110e1565b500390565b60006000198214156110da576110da6110e1565b5060010190565b634e487b7160e01b600052601160045260246000fdfea26469706673582212204b2291a6587da6c06d47cb474b37cf0fc509866723d826a1837c61bcd40f93d164736f6c63430008040033",
  "linkReferences": {},
  "deployedLinkReferences": {}
}