{
  "_format": "hh-sol-artifact-1",
  "contractName": "NFTMarket",
  "sourceName": "contracts/Market.sol",
  "abi": [
    {
      "inputs": [],
      "stateMutability": "nonpayable",
      "type": "constructor"
    },
    {
      "anonymous": false,
      "inputs": [
        {
          "indexed": true,
          "internalType": "uint256",
          "name": "itemId",
          "type": "uint256"
        },
        {
          "indexed": true,
          "internalType": "address",
          "name": "nftContract",
          "type": "address"
        },
        {
          "indexed": true,
          "internalType": "uint256",
          "name": "tokenId",
          "type": "uint256"
        },
        {
          "indexed": false,
          "internalType": "address",
          "name": "seller",
          "type": "address"
        },
        {
          "indexed": false,
          "internalType": "address",
          "name": "owner",
          "type": "address"
        },
        {
          "indexed": false,
          "internalType": "uint256",
          "name": "price",
          "type": "uint256"
        },
        {
          "indexed": false,
          "internalType": "bool",
          "name": "sold",
          "type": "bool"
        }
      ],
      "name": "MarketItemCreated",
      "type": "event"
    },
    {
      "inputs": [
        {
          "internalType": "address",
          "name": "nftContract",
          "type": "address"
        },
        {
          "internalType": "uint256",
          "name": "tokenId",
          "type": "uint256"
        },
        {
          "internalType": "uint256",
          "name": "price",
          "type": "uint256"
        }
      ],
      "name": "createMarketItem",
      "outputs": [
        {
          "internalType": "uint256",
          "name": "",
          "type": "uint256"
        }
      ],
      "stateMutability": "payable",
      "type": "function"
    },
    {
      "inputs": [
        {
          "internalType": "address",
          "name": "nftContract",
          "type": "address"
        },
        {
          "internalType": "uint256",
          "name": "itemId",
          "type": "uint256"
        }
      ],
      "name": "createMarketSale",
      "outputs": [],
      "stateMutability": "payable",
      "type": "function"
    },
    {
      "inputs": [],
      "name": "fetchItemsCreated",
      "outputs": [
        {
          "components": [
            {
              "internalType": "uint256",
              "name": "itemId",
              "type": "uint256"
            },
            {
              "internalType": "address",
              "name": "nftContract",
              "type": "address"
            },
            {
              "internalType": "uint256",
              "name": "tokenId",
              "type": "uint256"
            },
            {
              "internalType": "address payable",
              "name": "seller",
              "type": "address"
            },
            {
              "internalType": "address payable",
              "name": "owner",
              "type": "address"
            },
            {
              "internalType": "uint256",
              "name": "price",
              "type": "uint256"
            },
            {
              "internalType": "bool",
              "name": "sold",
              "type": "bool"
            }
          ],
          "internalType": "struct NFTMarket.MarketItem[]",
          "name": "",
          "type": "tuple[]"
        }
      ],
      "stateMutability": "view",
      "type": "function"
    },
    {
      "inputs": [],
      "name": "fetchMarketItems",
      "outputs": [
        {
          "components": [
            {
              "internalType": "uint256",
              "name": "itemId",
              "type": "uint256"
            },
            {
              "internalType": "address",
              "name": "nftContract",
              "type": "address"
            },
            {
              "internalType": "uint256",
              "name": "tokenId",
              "type": "uint256"
            },
            {
              "internalType": "address payable",
              "name": "seller",
              "type": "address"
            },
            {
              "internalType": "address payable",
              "name": "owner",
              "type": "address"
            },
            {
              "internalType": "uint256",
              "name": "price",
              "type": "uint256"
            },
            {
              "internalType": "bool",
              "name": "sold",
              "type": "bool"
            }
          ],
          "internalType": "struct NFTMarket.MarketItem[]",
          "name": "",
          "type": "tuple[]"
        }
      ],
      "stateMutability": "view",
      "type": "function"
    },
    {
      "inputs": [],
      "name": "fetchMyNFTs",
      "outputs": [
        {
          "components": [
            {
              "internalType": "uint256",
              "name": "itemId",
              "type": "uint256"
            },
            {
              "internalType": "address",
              "name": "nftContract",
              "type": "address"
            },
            {
              "internalType": "uint256",
              "name": "tokenId",
              "type": "uint256"
            },
            {
              "internalType": "address payable",
              "name": "seller",
              "type": "address"
            },
            {
              "internalType": "address payable",
              "name": "owner",
              "type": "address"
            },
            {
              "internalType": "uint256",
              "name": "price",
              "type": "uint256"
            },
            {
              "internalType": "bool",
              "name": "sold",
              "type": "bool"
            }
          ],
          "internalType": "struct NFTMarket.MarketItem[]",
          "name": "",
          "type": "tuple[]"
        }
      ],
      "stateMutability": "view",
      "type": "function"
    },
    {
      "inputs": [],
      "name": "fetchUnSoldMarketItems",
      "outputs": [
        {
          "components": [
            {
              "internalType": "uint256",
              "name": "itemId",
              "type": "uint256"
            },
            {
              "internalType": "address",
              "name": "nftContract",
              "type": "address"
            },
            {
              "internalType": "uint256",
              "name": "tokenId",
              "type": "uint256"
            },
            {
              "internalType": "address payable",
              "name": "seller",
              "type": "address"
            },
            {
              "internalType": "address payable",
              "name": "owner",
              "type": "address"
            },
            {
              "internalType": "uint256",
              "name": "price",
              "type": "uint256"
            },
            {
              "internalType": "bool",
              "name": "sold",
              "type": "bool"
            }
          ],
          "internalType": "struct NFTMarket.MarketItem[]",
          "name": "",
          "type": "tuple[]"
        }
      ],
      "stateMutability": "view",
      "type": "function"
    },
    {
      "inputs": [
        {
          "internalType": "address",
          "name": "receiver",
          "type": "address"
        }
      ],
      "name": "getAddressCredits",
      "outputs": [
        {
          "internalType": "uint256",
          "name": "",
          "type": "uint256"
        }
      ],
      "stateMutability": "view",
      "type": "function"
    },
    {
      "inputs": [],
      "name": "getSalesFeeBasisPoints",
      "outputs": [
        {
          "internalType": "uint256",
          "name": "",
          "type": "uint256"
        }
      ],
      "stateMutability": "view",
      "type": "function"
    },
    {
      "inputs": [
        {
          "internalType": "address",
          "name": "nftContract",
          "type": "address"
        },
        {
          "internalType": "uint256",
          "name": "itemId",
          "type": "uint256"
        }
      ],
      "name": "unListMarketItem",
      "outputs": [],
      "stateMutability": "payable",
      "type": "function"
    },
    {
      "inputs": [],
      "name": "withdrawCredits",
      "outputs": [],
      "stateMutability": "nonpayable",
      "type": "function"
    }
  ],
  "bytecode": "0x608060405260fa60045561271060055534801561001b57600080fd5b506001600055600380546001600160a01b03191633179055611212806100426000396000f3fe6080604052600436106100915760003560e01c8063717f6dfb11610059578063717f6dfb146101215780639cc1809714610136578063c23b139e1461016c578063e4e6d5181461017f578063f064c32e1461019457600080fd5b80630f08efe014610096578063202e3740146100c157806323562424146100d6578063382edbcf146100eb57806358eb2df514610100575b600080fd5b3480156100a257600080fd5b506100ab6101a9565b6040516100b89190611072565b60405180910390f35b3480156100cd57600080fd5b506100ab610303565b6100e96100e4366004611017565b6104f2565b005b3480156100f757600080fd5b506100ab61062e565b61011361010e366004611040565b610824565b6040519081526020016100b8565b34801561012d57600080fd5b506100e9610a34565b34801561014257600080fd5b50610113610151366004610ff6565b6001600160a01b031660009081526007602052604090205490565b6100e961017a366004611017565b610b4d565b34801561018b57600080fd5b50600454610113565b3480156101a057600080fd5b506100ab610d87565b606060006101b660015490565b90506000808267ffffffffffffffff8111156101e257634e487b7160e01b600052604160045260246000fd5b60405190808252806020026020018201604052801561021b57816020015b610208610f9e565b8152602001906001900390816102005790505b50905060005b838110156102fb57600061023682600161113d565b600081815260066020818152604092839020835160e0810185528154815260018201546001600160a01b039081169382019390935260028201549481019490945260038101548216606085015260048101549091166080840152600581015460a08401529081015460ff16151560c08301528551929350918590879081106102ce57634e487b7160e01b600052603260045260246000fd5b60209081029190910101526102e460018661113d565b9450505080806102f3906111ab565b915050610221565b509392505050565b6060600061031060015490565b905060008060005b8381101561037357336006600061033084600161113d565b81526020810191909152604001600020600401546001600160a01b031614156103615761035e60018461113d565b92505b8061036b816111ab565b915050610318565b5060008267ffffffffffffffff81111561039d57634e487b7160e01b600052604160045260246000fd5b6040519080825280602002602001820160405280156103d657816020015b6103c3610f9e565b8152602001906001900390816103bb5790505b50905060005b848110156104e95733600660006103f484600161113d565b81526020810191909152604001600020600401546001600160a01b031614156104d757600061042482600161113d565b600081815260066020818152604092839020835160e0810185528154815260018201546001600160a01b039081169382019390935260028201549481019490945260038101548216606085015260048101549091166080840152600581015460a08401529081015460ff16151560c08301528551929350918590879081106104bc57634e487b7160e01b600052603260045260246000fd5b60209081029190910101526104d260018661113d565b945050505b806104e1816111ab565b9150506103dc565b50949350505050565b6002600054141561051e5760405162461bcd60e51b815260040161051590611106565b60405180910390fd5b60026000908155818152600660205260409020600301546001600160a01b0316331461058c5760405162461bcd60e51b815260206004820152601e60248201527f4f6e6c792073656c6c6572206d617920756e6c69737420616e206974656d00006044820152606401610515565b600081815260066020526040908190206002015490516323b872dd60e01b8152306004820152336024820152604481018290526001600160a01b038416906323b872dd90606401600060405180830381600087803b1580156105ed57600080fd5b505af1158015610601573d6000803e3d6000fd5b5050506000928352505060066020526040812060040180546001600160a01b031916331790556001905550565b6060600061063b60015490565b905060008060005b838110156106cd576006600061065a83600161113d565b815260208101919091526040016000206006015460ff161580156106a85750600060068161068984600161113d565b81526020810191909152604001600020600401546001600160a01b0316145b156106bb576106b860018461113d565b92505b806106c5816111ab565b915050610643565b5060008267ffffffffffffffff8111156106f757634e487b7160e01b600052604160045260246000fd5b60405190808252806020026020018201604052801561073057816020015b61071d610f9e565b8152602001906001900390816107155790505b50905060005b848110156104e957600061074b82600161113d565b6000818152600660205260409020600401549091506001600160a01b031661081157600081815260066020818152604092839020835160e0810185528154815260018201546001600160a01b039081169382019390935260028201549481019490945260038101548216606085015260048101549091166080840152600581015460a08401529081015460ff16151560c0830152845190919085908790811061080457634e487b7160e01b600052603260045260246000fd5b6020026020010181905250505b508061081c816111ab565b915050610736565b6000600260005414156108495760405162461bcd60e51b815260040161051590611106565b60026000558161089b5760405162461bcd60e51b815260206004820152601c60248201527f5072696365206d757374206265206174206c65617374203120776569000000006044820152606401610515565b6108a9600180546001019055565b60006108b460015490565b6040805160e0810182528281526001600160a01b0388811660208084018281528486018b8152336060870181815260006080890181815260a08a018f815260c08b018381528d8452600698899052928c90209a518b55955160018b0180546001600160a01b0319908116928c16929092179055945160028b0155915160038a0180548616918a1691909117905590516004808a0180549095169190981617909255915160058701555194909101805460ff19169415159490941790935592516323b872dd60e01b81529081019190915230602482015260448101879052919250906323b872dd90606401600060405180830381600087803b1580156109b857600080fd5b505af11580156109cc573d6000803e3d6000fd5b505060408051338152600060208201819052818301889052606082015290518793506001600160a01b038916925084917f045dfa01dcba2b36aba1d3dc4a874f4b0c5d2fbeb8d2c4b34a7d88c8d8f929d1919081900360800190a46001600055949350505050565b3360009081526007602052604090205480610aa85760405162461bcd60e51b815260206004820152602e60248201527f546865726520617265206e6f206372656469747320696e20746869732072656360448201526d697069656e74206164647265737360901b6064820152608401610515565b80471015610b0e5760405162461bcd60e51b815260206004820152602d60248201527f546865726520617265206e6f206372656469747320696e207468697320636f6e60448201526c7472616374206164647265737360981b6064820152608401610515565b336000818152600760205260408082208290555183156108fc0291849190818181858888f19350505050158015610b49573d6000803e3d6000fd5b5050565b60026000541415610b705760405162461bcd60e51b815260040161051590611106565b600260008181558281526006602052604090206005810154918101546004909101546001600160a01b031615610bf45760405162461bcd60e51b815260206004820152602360248201527f54686973206974656d206973206e6f7420617661696c61626c6520666f722073604482015262616c6560e81b6064820152608401610515565b813414610c6b576040805162461bcd60e51b81526020600482015260248101919091527f506c65617365207375626d6974207468652061736b696e67207072696365206960448201527f6e206f7264657220746f20636f6d706c657465207468652070757263686173656064820152608401610515565b6000838152600660205260408120600301546005546004546001600160a01b039092169291610c9a9086611175565b610ca49190611155565b90506000610cb28286611194565b9050610cbe8382610f6d565b6040516323b872dd60e01b8152306004820152336024820152604481018590526001600160a01b038816906323b872dd90606401600060405180830381600087803b158015610d0c57600080fd5b505af1158015610d20573d6000803e3d6000fd5b50505060008781526006602081905260409091206004810180546001600160a01b0319163317905501805460ff1916600117905550610d63600280546001019055565b600354610d79906001600160a01b031683610f6d565b505060016000555050505050565b60606000610d9460015490565b905060008060005b83811015610df7573360066000610db484600161113d565b81526020810191909152604001600020600301546001600160a01b03161415610de557610de260018461113d565b92505b80610def816111ab565b915050610d9c565b5060008267ffffffffffffffff811115610e2157634e487b7160e01b600052604160045260246000fd5b604051908082528060200260200182016040528015610e5a57816020015b610e47610f9e565b815260200190600190039081610e3f5790505b50905060005b848110156104e9573360066000610e7884600161113d565b81526020810191909152604001600020600301546001600160a01b03161415610f5b576000610ea882600161113d565b600081815260066020818152604092839020835160e0810185528154815260018201546001600160a01b039081169382019390935260028201549481019490945260038101548216606085015260048101549091166080840152600581015460a08401529081015460ff16151560c0830152855192935091859087908110610f4057634e487b7160e01b600052603260045260246000fd5b6020908102919091010152610f5660018661113d565b945050505b80610f65816111ab565b915050610e60565b6001600160a01b03821660009081526007602052604081208054839290610f9590849061113d565b90915550505050565b6040805160e081018252600080825260208201819052918101829052606081018290526080810182905260a0810182905260c081019190915290565b80356001600160a01b0381168114610ff157600080fd5b919050565b600060208284031215611007578081fd5b61101082610fda565b9392505050565b60008060408385031215611029578081fd5b61103283610fda565b946020939093013593505050565b600080600060608486031215611054578081fd5b61105d84610fda565b95602085013595506040909401359392505050565b602080825282518282018190526000919060409081850190868401855b828110156110f957815180518552868101516001600160a01b039081168887015286820151878701526060808301518216908701526080808301519091169086015260a0808201519086015260c09081015115159085015260e0909301929085019060010161108f565b5091979650505050505050565b6020808252601f908201527f5265656e7472616e637947756172643a207265656e7472616e742063616c6c00604082015260600190565b60008219821115611150576111506111c6565b500190565b60008261117057634e487b7160e01b81526012600452602481fd5b500490565b600081600019048311821515161561118f5761118f6111c6565b500290565b6000828210156111a6576111a66111c6565b500390565b60006000198214156111bf576111bf6111c6565b5060010190565b634e487b7160e01b600052601160045260246000fdfea2646970667358221220c61846de7b278b41ab1fed447f575d10173666d2829801f933b3d38aec2a94d364736f6c63430008040033",
  "linkReferences": {},
  "deployedLinkReferences": {}
}